{
  "_format": "hh-sol-artifact-1",
  "contractName": "WavePortal",
  "sourceName": "contracts/WavePortal.sol",
  "abi": [
    {
      "inputs": [],
      "stateMutability": "payable",
      "type": "constructor"
    },
    {
      "anonymous": false,
      "inputs": [
        {
          "indexed": true,
          "internalType": "address",
          "name": "from",
          "type": "address"
        },
        {
          "indexed": false,
          "internalType": "uint256",
          "name": "timestamp",
          "type": "uint256"
        },
        {
          "indexed": false,
          "internalType": "string",
          "name": "message",
          "type": "string"
        }
      ],
      "name": "NewWave",
      "type": "event"
    },
    {
      "anonymous": false,
      "inputs": [
        {
          "indexed": true,
          "internalType": "address",
          "name": "winner",
          "type": "address"
        },
        {
          "indexed": false,
          "internalType": "uint256",
          "name": "prizeAmount",
          "type": "uint256"
        }
      ],
      "name": "PrizeWon",
      "type": "event"
    },
    {
      "inputs": [
        {
          "internalType": "address",
          "name": "",
          "type": "address"
        }
      ],
      "name": "lastWavedAt",
      "outputs": [
        {
          "internalType": "uint256",
          "name": "",
          "type": "uint256"
        }
      ],
      "stateMutability": "view",
      "type": "function"
    },
    {
      "inputs": [],
      "name": "me",
      "outputs": [
        {
          "internalType": "address",
          "name": "",
          "type": "address"
        }
      ],
      "stateMutability": "view",
      "type": "function"
    },
    {
      "inputs": [
        {
          "internalType": "address",
          "name": "",
          "type": "address"
        }
      ],
      "name": "numOfWaves",
      "outputs": [
        {
          "internalType": "uint256",
          "name": "",
          "type": "uint256"
        }
      ],
      "stateMutability": "view",
      "type": "function"
    },
    {
      "inputs": [],
      "name": "prizeAmount",
      "outputs": [
        {
          "internalType": "uint256",
          "name": "",
          "type": "uint256"
        }
      ],
      "stateMutability": "view",
      "type": "function"
    },
    {
      "inputs": [
        {
          "internalType": "uint256",
          "name": "_newPrizeAmount",
          "type": "uint256"
        }
      ],
      "name": "setPrizeAmount",
      "outputs": [],
      "stateMutability": "nonpayable",
      "type": "function"
    },
    {
      "inputs": [
        {
          "internalType": "string",
          "name": "_message",
          "type": "string"
        }
      ],
      "name": "waveAtMe",
      "outputs": [],
      "stateMutability": "nonpayable",
      "type": "function"
    },
    {
      "inputs": [
        {
          "internalType": "uint256",
          "name": "_amount",
          "type": "uint256"
        }
      ],
      "name": "withdrawFunds",
      "outputs": [],
      "stateMutability": "nonpayable",
      "type": "function"
    },
    {
      "stateMutability": "payable",
      "type": "receive"
    }
  ],
  "bytecode": "0x608060405266b1a2bc2ec50000600255336000806101000a81548173ffffffffffffffffffffffffffffffffffffffff021916908373ffffffffffffffffffffffffffffffffffffffff160217905550610dd38061005e6000396000f3fe6080604052600436106100745760003560e01c8063785fa6271161004e578063785fa6271461010f5780638a47f29e1461013a578063a42a466314610163578063cb12b48f146101a05761007b565b8063155dd5ee146100805780633f6841cb146100a957806351386532146100e65761007b565b3661007b57005b600080fd5b34801561008c57600080fd5b506100a760048036038101906100a291906107e3565b6101cb565b005b3480156100b557600080fd5b506100d060048036038101906100cb9190610775565b61034c565b6040516100dd9190610bc5565b60405180910390f35b3480156100f257600080fd5b5061010d600480360381019061010891906107e3565b610364565b005b34801561011b57600080fd5b506101246103fc565b6040516101319190610bc5565b60405180910390f35b34801561014657600080fd5b50610161600480360381019061015c919061079e565b610402565b005b34801561016f57600080fd5b5061018a60048036038101906101859190610775565b610589565b6040516101979190610bc5565b60405180910390f35b3480156101ac57600080fd5b506101b56105a1565b6040516101c29190610aea565b60405180910390f35b60008054906101000a900473ffffffffffffffffffffffffffffffffffffffff1673ffffffffffffffffffffffffffffffffffffffff163373ffffffffffffffffffffffffffffffffffffffff1614610259576040517f08c379a000000000000000000000000000000000000000000000000000000000815260040161025090610b65565b60405180910390fd5b4781111561029c576040517f08c379a000000000000000000000000000000000000000000000000000000000815260040161029390610b05565b60405180910390fd5b60003373ffffffffffffffffffffffffffffffffffffffff16826040516102c290610ad5565b60006040518083038185875af1925050503d80600081146102ff576040519150601f19603f3d011682016040523d82523d6000602084013e610304565b606091505b5050905080610348576040517f08c379a000000000000000000000000000000000000000000000000000000000815260040161033f90610b25565b60405180910390fd5b5050565b60036020528060005260406000206000915090505481565b60008054906101000a900473ffffffffffffffffffffffffffffffffffffffff1673ffffffffffffffffffffffffffffffffffffffff163373ffffffffffffffffffffffffffffffffffffffff16146103f2576040517f08c379a00000000000000000000000000000000000000000000000000000000081526004016103e990610b85565b60405180910390fd5b8060028190555050565b60025481565b42610384600460003373ffffffffffffffffffffffffffffffffffffffff1673ffffffffffffffffffffffffffffffffffffffff168152602001908152602001600020546104509190610c2e565b10610490576040517f08c379a000000000000000000000000000000000000000000000000000000000815260040161048790610b45565b60405180910390fd5b6001600360003373ffffffffffffffffffffffffffffffffffffffff1673ffffffffffffffffffffffffffffffffffffffff16815260200190815260200160002060008282546104e09190610c2e565b9250508190555042600460003373ffffffffffffffffffffffffffffffffffffffff1673ffffffffffffffffffffffffffffffffffffffff168152602001908152602001600020819055506105336105c5565b3373ffffffffffffffffffffffffffffffffffffffff167f5f7e16dc676677766a70e9c5628aa6c54ddb8b6e5188e2ae1e1f17f1ffbea71642848460405161057d93929190610be0565b60405180910390a25050565b60046020528060005260406000206000915090505481565b60008054906101000a900473ffffffffffffffffffffffffffffffffffffffff1681565b6000606460015442446105d89190610c2e565b6105e29190610c2e565b6105ec9190610ccf565b90508060018190555060328110156106fe5760003373ffffffffffffffffffffffffffffffffffffffff1660025460405161062690610ad5565b60006040518083038185875af1925050503d8060008114610663576040519150601f19603f3d011682016040523d82523d6000602084013e610668565b606091505b50509050806106ac576040517f08c379a00000000000000000000000000000000000000000000000000000000081526004016106a390610ba5565b60405180910390fd5b3373ffffffffffffffffffffffffffffffffffffffff167f7a8c3415d46b0dd859ab2ff090579d9ab303bc3548f1cc9eae7586fb6cbdf3986002546040516106f49190610bc5565b60405180910390a2505b50565b60008135905061071081610d6f565b92915050565b60008083601f84011261072857600080fd5b8235905067ffffffffffffffff81111561074157600080fd5b60208301915083600182028301111561075957600080fd5b9250929050565b60008135905061076f81610d86565b92915050565b60006020828403121561078757600080fd5b600061079584828501610701565b91505092915050565b600080602083850312156107b157600080fd5b600083013567ffffffffffffffff8111156107cb57600080fd5b6107d785828601610716565b92509250509250929050565b6000602082840312156107f557600080fd5b600061080384828501610760565b91505092915050565b61081581610c84565b82525050565b60006108278385610c1d565b9350610834838584610cc0565b61083d83610d5e565b840190509392505050565b6000610855603383610c1d565b91507f547279696e6720746f2077697468726177206d6f7265206d6f6e65792074686160008301527f6e2074686520636f6e7472616374206861732e000000000000000000000000006020830152604082019050919050565b60006108bb602783610c1d565b91507f4661696c656420746f207769746864726177206d6f6e65792066726f6d20636f60008301527f6e74726163742e000000000000000000000000000000000000000000000000006020830152604082019050919050565b6000610921602983610c1d565b91507f4d7573742077616974203135206d696e75746573206265666f7265207761766960008301527f6e6720616761696e2e00000000000000000000000000000000000000000000006020830152604082019050919050565b6000610987603283610c1d565b91507f4e6f7420617574686f72697a656420746f207769746864726177206d6f6e657960008301527f2066726f6d2074686520636f6e747261637400000000000000000000000000006020830152604082019050919050565b60006109ed602583610c1d565b91507f4e6f7420617574686f72697a656420746f206368616e6765207072697a65206160008301527f6d6f756e740000000000000000000000000000000000000000000000000000006020830152604082019050919050565b6000610a53600083610c12565b9150600082019050919050565b6000610a6d602483610c1d565b91507f4661696c656420746f2073656e64207072697a65206d6f6e657920746f20776160008301527f7665722e000000000000000000000000000000000000000000000000000000006020830152604082019050919050565b610acf81610cb6565b82525050565b6000610ae082610a46565b9150819050919050565b6000602082019050610aff600083018461080c565b92915050565b60006020820190508181036000830152610b1e81610848565b9050919050565b60006020820190508181036000830152610b3e816108ae565b9050919050565b60006020820190508181036000830152610b5e81610914565b9050919050565b60006020820190508181036000830152610b7e8161097a565b9050919050565b60006020820190508181036000830152610b9e816109e0565b9050919050565b60006020820190508181036000830152610bbe81610a60565b9050919050565b6000602082019050610bda6000830184610ac6565b92915050565b6000604082019050610bf56000830186610ac6565b8181036020830152610c0881848661081b565b9050949350505050565b600081905092915050565b600082825260208201905092915050565b6000610c3982610cb6565b9150610c4483610cb6565b9250827fffffffffffffffffffffffffffffffffffffffffffffffffffffffffffffffff03821115610c7957610c78610d00565b5b828201905092915050565b6000610c8f82610c96565b9050919050565b600073ffffffffffffffffffffffffffffffffffffffff82169050919050565b6000819050919050565b82818337600083830152505050565b6000610cda82610cb6565b9150610ce583610cb6565b925082610cf557610cf4610d2f565b5b828206905092915050565b7f4e487b7100000000000000000000000000000000000000000000000000000000600052601160045260246000fd5b7f4e487b7100000000000000000000000000000000000000000000000000000000600052601260045260246000fd5b6000601f19601f8301169050919050565b610d7881610c84565b8114610d8357600080fd5b50565b610d8f81610cb6565b8114610d9a57600080fd5b5056fea26469706673582212204fbbc450658a44158c31fd28aba35636fea54b6738a66219acb8933454e75f1d64736f6c63430008000033",
  "linkReferences": {},
  "deployedLinkReferences": {}
}