{
  "_format": "hh-sol-artifact-1",
  "contractName": "WavePortal",
  "sourceName": "contracts/WavePortal.sol",
  "abi": [
    {
      "inputs": [],
      "stateMutability": "payable",
      "type": "constructor"
    },
    {
      "anonymous": false,
      "inputs": [
        {
          "indexed": true,
          "internalType": "address",
          "name": "from",
          "type": "address"
        },
        {
          "indexed": false,
          "internalType": "uint256",
          "name": "timestamp",
          "type": "uint256"
        },
        {
          "indexed": false,
          "internalType": "bytes",
          "name": "message",
          "type": "bytes"
        }
      ],
      "name": "NewWave",
      "type": "event"
    },
    {
      "anonymous": false,
      "inputs": [
        {
          "indexed": true,
          "internalType": "address",
          "name": "winner",
          "type": "address"
        },
        {
          "indexed": false,
          "internalType": "uint256",
          "name": "prizeAmount",
          "type": "uint256"
        }
      ],
      "name": "PrizeWon",
      "type": "event"
    },
    {
      "inputs": [
        {
          "internalType": "address",
          "name": "",
          "type": "address"
        }
      ],
      "name": "lastWavedAt",
      "outputs": [
        {
          "internalType": "uint256",
          "name": "",
          "type": "uint256"
        }
      ],
      "stateMutability": "view",
      "type": "function"
    },
    {
      "inputs": [],
      "name": "me",
      "outputs": [
        {
          "internalType": "address",
          "name": "",
          "type": "address"
        }
      ],
      "stateMutability": "view",
      "type": "function"
    },
    {
      "inputs": [
        {
          "internalType": "address",
          "name": "",
          "type": "address"
        }
      ],
      "name": "numOfWaves",
      "outputs": [
        {
          "internalType": "uint256",
          "name": "",
          "type": "uint256"
        }
      ],
      "stateMutability": "view",
      "type": "function"
    },
    {
      "inputs": [],
      "name": "prizeAmount",
      "outputs": [
        {
          "internalType": "uint256",
          "name": "",
          "type": "uint256"
        }
      ],
      "stateMutability": "view",
      "type": "function"
    },
    {
      "inputs": [
        {
          "internalType": "uint256",
          "name": "_newPrizeAmount",
          "type": "uint256"
        }
      ],
      "name": "setPrizeAmount",
      "outputs": [],
      "stateMutability": "nonpayable",
      "type": "function"
    },
    {
      "inputs": [
        {
          "internalType": "bytes",
          "name": "_message",
          "type": "bytes"
        }
      ],
      "name": "waveAtMe",
      "outputs": [],
      "stateMutability": "nonpayable",
      "type": "function"
    },
    {
      "inputs": [
        {
          "internalType": "uint256",
          "name": "_amount",
          "type": "uint256"
        }
      ],
      "name": "withdrawFunds",
      "outputs": [],
      "stateMutability": "nonpayable",
      "type": "function"
    },
    {
      "stateMutability": "payable",
      "type": "receive"
    }
  ],
  "bytecode": "0x608060405266b1a2bc2ec50000600255336000806101000a81548173ffffffffffffffffffffffffffffffffffffffff021916908373ffffffffffffffffffffffffffffffffffffffff160217905550610ed38061005e6000396000f3fe6080604052600436106100745760003560e01c8063785fa6271161004e578063785fa6271461010f578063a42a46631461013a578063bc6aed1914610177578063cb12b48f146101a05761007b565b8063155dd5ee146100805780633f6841cb146100a957806351386532146100e65761007b565b3661007b57005b600080fd5b34801561008c57600080fd5b506100a760048036038101906100a291906107fa565b6101cb565b005b3480156100b557600080fd5b506100d060048036038101906100cb9190610790565b61034c565b6040516100dd9190610be8565b60405180910390f35b3480156100f257600080fd5b5061010d600480360381019061010891906107fa565b610364565b005b34801561011b57600080fd5b506101246103fc565b6040516101319190610be8565b60405180910390f35b34801561014657600080fd5b50610161600480360381019061015c9190610790565b610402565b60405161016e9190610be8565b60405180910390f35b34801561018357600080fd5b5061019e600480360381019061019991906107b9565b61041a565b005b3480156101ac57600080fd5b506101b561059e565b6040516101c29190610b0d565b60405180910390f35b60008054906101000a900473ffffffffffffffffffffffffffffffffffffffff1673ffffffffffffffffffffffffffffffffffffffff163373ffffffffffffffffffffffffffffffffffffffff1614610259576040517f08c379a000000000000000000000000000000000000000000000000000000000815260040161025090610b88565b60405180910390fd5b4781111561029c576040517f08c379a000000000000000000000000000000000000000000000000000000000815260040161029390610b28565b60405180910390fd5b60003373ffffffffffffffffffffffffffffffffffffffff16826040516102c290610af8565b60006040518083038185875af1925050503d80600081146102ff576040519150601f19603f3d011682016040523d82523d6000602084013e610304565b606091505b5050905080610348576040517f08c379a000000000000000000000000000000000000000000000000000000000815260040161033f90610b48565b60405180910390fd5b5050565b60036020528060005260406000206000915090505481565b60008054906101000a900473ffffffffffffffffffffffffffffffffffffffff1673ffffffffffffffffffffffffffffffffffffffff163373ffffffffffffffffffffffffffffffffffffffff16146103f2576040517f08c379a00000000000000000000000000000000000000000000000000000000081526004016103e990610ba8565b60405180910390fd5b8060028190555050565b60025481565b60046020528060005260406000206000915090505481565b42610384600460003373ffffffffffffffffffffffffffffffffffffffff1673ffffffffffffffffffffffffffffffffffffffff168152602001908152602001600020546104689190610ccc565b106104a8576040517f08c379a000000000000000000000000000000000000000000000000000000000815260040161049f90610b68565b60405180910390fd5b6001600360003373ffffffffffffffffffffffffffffffffffffffff1673ffffffffffffffffffffffffffffffffffffffff16815260200190815260200160002060008282546104f89190610ccc565b9250508190555042600460003373ffffffffffffffffffffffffffffffffffffffff1673ffffffffffffffffffffffffffffffffffffffff1681526020019081526020016000208190555061054b6105c2565b3373ffffffffffffffffffffffffffffffffffffffff167f73391c65f884f3509745710d9da44fd3a987ae2f3ddcb2ddb71d3e188ff4180e4283604051610593929190610c03565b60405180910390a250565b60008054906101000a900473ffffffffffffffffffffffffffffffffffffffff1681565b6000606460015442446105d59190610ccc565b6105df9190610ccc565b6105e99190610da0565b90508060018190555060328110156106fb5760003373ffffffffffffffffffffffffffffffffffffffff1660025460405161062390610af8565b60006040518083038185875af1925050503d8060008114610660576040519150601f19603f3d011682016040523d82523d6000602084013e610665565b606091505b50509050806106a9576040517f08c379a00000000000000000000000000000000000000000000000000000000081526004016106a090610bc8565b60405180910390fd5b3373ffffffffffffffffffffffffffffffffffffffff167f7a8c3415d46b0dd859ab2ff090579d9ab303bc3548f1cc9eae7586fb6cbdf3986002546040516106f19190610be8565b60405180910390a2505b50565b600061071161070c84610c64565b610c33565b90508281526020810184848401111561072957600080fd5b610734848285610d5e565b509392505050565b60008135905061074b81610e6f565b92915050565b600082601f83011261076257600080fd5b81356107728482602086016106fe565b91505092915050565b60008135905061078a81610e86565b92915050565b6000602082840312156107a257600080fd5b60006107b08482850161073c565b91505092915050565b6000602082840312156107cb57600080fd5b600082013567ffffffffffffffff8111156107e557600080fd5b6107f184828501610751565b91505092915050565b60006020828403121561080c57600080fd5b600061081a8482850161077b565b91505092915050565b61082c81610d22565b82525050565b600061083d82610c94565b6108478185610c9f565b9350610857818560208601610d6d565b61086081610e5e565b840191505092915050565b6000610878603383610cbb565b91507f547279696e6720746f2077697468726177206d6f7265206d6f6e65792074686160008301527f6e2074686520636f6e7472616374206861732e000000000000000000000000006020830152604082019050919050565b60006108de602783610cbb565b91507f4661696c656420746f207769746864726177206d6f6e65792066726f6d20636f60008301527f6e74726163742e000000000000000000000000000000000000000000000000006020830152604082019050919050565b6000610944602983610cbb565b91507f4d7573742077616974203135206d696e75746573206265666f7265207761766960008301527f6e6720616761696e2e00000000000000000000000000000000000000000000006020830152604082019050919050565b60006109aa603283610cbb565b91507f4e6f7420617574686f72697a656420746f207769746864726177206d6f6e657960008301527f2066726f6d2074686520636f6e747261637400000000000000000000000000006020830152604082019050919050565b6000610a10602583610cbb565b91507f4e6f7420617574686f72697a656420746f206368616e6765207072697a65206160008301527f6d6f756e740000000000000000000000000000000000000000000000000000006020830152604082019050919050565b6000610a76600083610cb0565b9150600082019050919050565b6000610a90602483610cbb565b91507f4661696c656420746f2073656e64207072697a65206d6f6e657920746f20776160008301527f7665722e000000000000000000000000000000000000000000000000000000006020830152604082019050919050565b610af281610d54565b82525050565b6000610b0382610a69565b9150819050919050565b6000602082019050610b226000830184610823565b92915050565b60006020820190508181036000830152610b418161086b565b9050919050565b60006020820190508181036000830152610b61816108d1565b9050919050565b60006020820190508181036000830152610b8181610937565b9050919050565b60006020820190508181036000830152610ba18161099d565b9050919050565b60006020820190508181036000830152610bc181610a03565b9050919050565b60006020820190508181036000830152610be181610a83565b9050919050565b6000602082019050610bfd6000830184610ae9565b92915050565b6000604082019050610c186000830185610ae9565b8181036020830152610c2a8184610832565b90509392505050565b6000604051905081810181811067ffffffffffffffff82111715610c5a57610c59610e2f565b5b8060405250919050565b600067ffffffffffffffff821115610c7f57610c7e610e2f565b5b601f19601f8301169050602081019050919050565b600081519050919050565b600082825260208201905092915050565b600081905092915050565b600082825260208201905092915050565b6000610cd782610d54565b9150610ce283610d54565b9250827fffffffffffffffffffffffffffffffffffffffffffffffffffffffffffffffff03821115610d1757610d16610dd1565b5b828201905092915050565b6000610d2d82610d34565b9050919050565b600073ffffffffffffffffffffffffffffffffffffffff82169050919050565b6000819050919050565b82818337600083830152505050565b60005b83811015610d8b578082015181840152602081019050610d70565b83811115610d9a576000848401525b50505050565b6000610dab82610d54565b9150610db683610d54565b925082610dc657610dc5610e00565b5b828206905092915050565b7f4e487b7100000000000000000000000000000000000000000000000000000000600052601160045260246000fd5b7f4e487b7100000000000000000000000000000000000000000000000000000000600052601260045260246000fd5b7f4e487b7100000000000000000000000000000000000000000000000000000000600052604160045260246000fd5b6000601f19601f8301169050919050565b610e7881610d22565b8114610e8357600080fd5b50565b610e8f81610d54565b8114610e9a57600080fd5b5056fea26469706673582212200b715e320c6b4bdf5e500ac74eaebfa1c7974e1a7fb1612c6216d1ee6542411964736f6c63430008000033",
  "linkReferences": {},
  "deployedLinkReferences": {}
}